:020000040800F2
:10000000D004002005010008431100081B1000085F
:1000100041110008810100082B13000800000000B6
:10002000000000000000000000000000AD12000809
:10003000830100080000000049110008AF12000809
:100040001F010008451100081F010008CD1100081C
:10005000850100084B1100081F0100081F0100085E
:100060001F0100081F0100081F0100081F010008F0
:100070001F0100081F0100081F0100081F010008E0
:100080001F0100081F0100081F0100081F010008D0
:100090001F0100081F0100081F0100081F010008C0
:1000A0001F0100081F0100081F0100081F010008B0
:1000B0001F0100081F010008000000001F010008C8
:1000C0001F01000800000000000000001F010008E0
:1000D000000000001F0100081F01000800000000D0
:1000E0001F0100081F0100081F010008DFF810D0E1
:1000F00000F034F80048004791160008AFF3008084
:10010000D00400200648804706480047FEE7FEE787
:10011000FEE7FEE7FEE7FEE7FEE7FEE7FEE7FEE7B7
:1001200029130008ED000008D2B201E000F8012B0D
:10013000491EFBD270470022F6E710B513460A4667
:1001400004461946FFF7F0FF204610BD421C10F888
:10015000011B0029FBD1801A70470000064C074D97
:1001600006E0E06840F0010394E807009847103487
:10017000AC42F6D3FFF7BEFFE01B0008001C0008EE
:10018000FEE7704700F062B8064A0021D1610649D7
:100190000A6942F002020A614861086940F04000C1
:1001A00008617047B000002000200240044B00228C
:1001B000DA61044A136943F0010313610180704757
:1001C000B00000200020024014480022C168CB0685
:1001D000134904D5CA6942F00202CA611022C368F9
:1001E0005B0705D5CB6943F00103CB6142F0040204
:1001F000C369DB0707D0CB6943F00403CB61C16956
:1002000021F00101C161A2F58071013901D0C26004
:100210007047C16921F00101C161704700200240AF
:10022000B000002070B5044600F080F90546601C5F
:1002300002D004480078044400F078F9401BA04242
:10024000FAD370BD7C000020704700002DE9F0411A
:100250003E4DE8683E4CC0064FF0FF374FF00006B9
:1002600002D4E868400708D5D4F80880A760FFF7F3
:10027000ABFF404600F06EF82670E868800653D564
:100280002020E8602078F8B1207801281DD020785F
:10029000022833D06068401E60606068B0B3A06818
:1002A000801CA060A06821696269090C41EA0241D2
:1002B000120C21616261296921F001012961216922
:1002C000626989B2FFF772FF2EE06068401E6060CD
:1002D000606868B1A068FFF7B7FFA06800F58060AC
:1002E000A060296921F002012961FFF74DFF1BE0A1
:1002F0003846A7602670FFF7A7FF15E0286920F0B1
:10030000040028610020FFF79FFF0CE0FFE7207842
:10031000032817D020780428A06815D0B0F1060073
:10032000FFF792FFA76026702078002808D128697F
:1003300020F007002861286920F4A0502861267663
:10034000BDE8F081A068EBE7801EE9E700200240ED
:10035000B0000020704700002DE9F84FDFF89C91B5
:10036000002409F1040A0AF1040B23460F270BF1BC
:10037000040EBBE00125A5402A40AA4276D1DFF851
:1003800080C14E68A6EB0C0866452BD00DDC032E11
:1003900034D005DC36B3012E19D0022E2FD11BE04C
:1003A000112E16D0122E2AD119E0B8F5881F19D0B7
:1003B00006DCB8F5803F15D0B8F5801F1FD111E0DD
:1003C000B8F5001F0ED0B8F5041F18D10AE0CB68AD
:1003D00015E0CB681B1D12E0CB6808330FE0CB683B
:1003E0000C330CE08B682BB1012B4FF0080303D0CA
:1003F000456104E0042302E0056100E00023FF2AD8
:1004000001D8064601E000F104064FEA840501D94F
:10041000A5F12005D6F8008007FA05FC28EA0C08AB
:1004200003FA05F548EA0508C6F800804D68ED00B6
:100430005BD5344DAE6946F00106AE61AD6924F07E
:10044000030605F0010500952F4D06EB050CDCF8C1
:100450000850A607360F07FA06F825EA0805DFF860
:10046000AC80404503D14FF0000810E03DE0DFF8DC
:10047000A080404502D14FF0010808E0DFF89480E9
:10048000404502D14FF0020801E04FF0030808FA9E
:1004900006F848EA0508CCF808804D68D9F80060ED
:1004A000ED034D4601D5164300E096432E604D689E
:1004B000DAF80060AD03554601D5164300E09643D7
:1004C0002E604D68DBF80060ED025D4601D51643F5
:1004D00000E096432E604D68DEF80060AD02754680
:1004E00001D5164300E096432E60641C0A6832FA78
:1004F00004F57FF43FAFBDE8F88F00000004014031
:1005000000001110001002400000014000080140EE
:10051000000C0140001001408068084000D001201C
:1005200070470AB1016170470904FBE70148806820
:10053000704700007C000020024881680278114466
:10054000816070477C000020074810B5016841F0C9
:1005500010010160032000F075F8002000F006F89B
:1005600000F024F8002010BD0020024070B50D4DB1
:1005700004464FF47A712878B1FBF0F00A49096813
:10058000B1FBF0F000F035FD48B9102C07D2002285
:100590002146501E00F036F800206C6070BD01202E
:1005A00070BD00007C000020880000200C4808B5C9
:1005B000816941F001018161816901F001010091CE
:1005C000C16941F08051C161C06900F08050009064
:1005D0000448416821F0E06141F08061416008BD5C
:1005E0000010024000000140002809DB00F01F025B
:1005F000012191404009800000F1E020C0F8001185
:1006000070470000F0B40E4B1B680C46C3F3022386
:10061000C3F10705042D00D90425191D072901D2AE
:10062000002300E0DB1E012606FA05F1491E2140E9
:1006300099409E40761E16403143F0BC00F076BED5
:100640000CED00E0064900F0070208684FF6FF03D2
:10065000184040EA0220034A104308607047000037
:100660000CED00E00000FA05014901200862704726
:1006700000000E427047000010B5054C2068C00312
:1006800004D5FFF7F7FF4FF48030206010BD000065
:100690001404014010B529A401461DCC86B08DE894
:1006A0001D002AA02A4C006804900020012923D0B4
:1006B00002293AD010291DD161682268D20119D5CA
:1006C000C1F38342C9031DF8020009D5616804AA79
:1006D000C1F34041515C1F4AB2FBF1F1484301E0D4
:1006E0001D4948436168490204D440005FF003019A
:1006F000B0FBF1F006B010BD226AC2F3012101295E
:1007000003D1920701D5C803F4E7022905D1626A33
:10071000920702D549F64040ECE70329EAD1216867
:100720008903E7D54FF22440E4E700F023F961683C
:10073000C1F38131491C4900DAE7000002030405D6
:10074000060708090A0B0C0D0E0F1010010200001D
:100750000010024000127A0000093D002DE9F84324
:1007600005460078354CC00754D0E0690026C0002B
:1007700008D4E06940F08050E061E069012600F0B3
:10078000805000902E480168C90512D40168804647
:1007900041F480710160FFF7C9FE074605E000BF24
:1007A000FFF7C4FEC01B642823D8D8F80000C0059A
:1007B000F6D5206A10F4407021D0A98801F4407168
:1007C00081421CD0206A1F49012220F440700A6037
:1007D00000220A602062C00711D0FFF7A7FE07467B
:1007E00041F2883808E000BFFFF7A0FEC11B414579
:1007F00002D90320BDE8F883206A8007F4D5206A77
:10080000696820F44070084320621EB1E06920F05E
:100810008050E0612878800705D56068A96820F4D9
:100820004040084360602878C00605D56068E968E4
:1008300020F48000084360600020DBE700100240E5
:1008400000700040400442422DE9F0470F46050089
:1008500061D0434E306800F00700B84209D23068DA
:1008600020F0070038433060306800F00700B842DD
:1008700051D128683B4C810712D5400703D56068E9
:1008800040F4E06060602878000703D5606840F4B9
:10089000605060606068A96820F0F0000843606004
:1008A0002878C00728D06868012810D0216802285D
:1008B00010D0890700292EDA616821F00301014375
:1008C0006160FFF733FE804641F288390DE0216810
:1008D0008903EFE78901EDE7FFF728FEA0EB0801A8
:1008E000494502D90320BDE8F0876068696800F0D7
:1008F0000C00B0EB810FEFD1306800F00700B84278
:100900000BD9306820F0070038433060306800F0C1
:100910000700B84201D00120E5E72878400705D557
:100920006068E96820F4E0600843606028780007A8
:1009300006D56068296920F4605040EAC100606013
:1009400000F028F86168084AC1F30311515CC840FF
:100950000649086006480068FFF708FE0020C2E765
:100960000020024000100240C81B00088800002040
:10097000800000200448054900684968044AC1F322
:10098000C221515CC840704788000020001002401E
:10099000D81B000812A185B00FC98DE80F0014A064
:1009A000144A006804905168134801F00C03042BAA
:1009B00010D0082B0ED1C1F38343C9031DF80300E7
:1009C0000AD5516804AAC1F34041515C0A4A504318
:1009D000B0FBF1F005B0704708494843FAE7000062
:1009E00002030405060708090A0B0C0D0E0F101070
:1009F000010200000010024000127A0000093D00D0
:100A00002DE9F84F040070D02078C04DC00749D0C0
:100A10006868C0F38100012807D06868C0F38100CE
:100A2000022809D16868C00306D52868800339D533
:100A300060680028E7D035E06068B0F5803F0BD0F3
:100A400010B1B0F5A02F11D0286820F480302860B4
:100A5000286820F4802002E0286840F48030286074
:100A6000606890B1FFF762FD06460AE0286840F42E
:100A700080202860F0E700BFFFF758FD801B642846
:100A800073D828688003F7D50CE0FFF74FFD0646C2
:100A900005E000BFFFF74AFD801B6428F0D82868F6
:100AA0008003F7D420789A4E80074FF001094FF069
:100AB000000839D5686810F00C0F07D06868C0F3DB
:100AC0008100022809D16868C00306D4286880071D
:100AD00014D52069012808D110E02069B0B1C6F80A
:100AE0000090FFF723FD074605E00AE1FFF71EFD32
:100AF000C01B0228C4D828688007F7D52868616918
:100B000020F0F80040EAC10028600DE0C6F800803F
:100B1000FFF70CFD074604E0FFF708FDC01B0228A5
:100B200023D828688007F7D4207800072CD5794887
:100B3000A169D9B1C0F80090FFF7F8FC074604E0BE
:100B4000FFF7F4FCC01B02280FD8686A8007F7D5AE
:100B500071484FF4FA510068B0FBF1F0009000BF0B
:100B60000098411E0091FAD20EE080E0C0F80080AB
:100B7000FFF7DCFC074604E0FFF7D8FCC01B0228A7
:100B800075D8686A8007F7D42078400760D5E8698F
:100B90000027C00008D4E86940F08050E861E869A7
:100BA000012700F0805000905C480168C90513D40B
:100BB0000168834641F480710160FFF7B7FC82460B
:100BC00006E000BFFFF7B2FCA0EB0A0064284ED895
:100BD000DBF80000C005F5D5E06801280AD008B1AF
:100BE000052813D0286A20F001002862286A20F026
:100BF000040002E0286A40F001002862E06841F247
:100C0000883B98B1FFF792FC82460BE0286A40F0DF
:100C100004002862EEE700BFFFF788FCA0EB0A01A2
:100C200059455AD8286A8007F6D50CE0FFF77EFCB4
:100C3000824605E0FFF77AFCA0EB0A0159454CD843
:100C4000286A8007F6D41FB1E86920F08050E86177
:100C5000E06988B36968C1F38101022944D00228A0
:100C6000C6F8608004D0FFF761FC044638E034E049
:100C7000FFF75CFC074604E0FFF758FCC01B0228A6
:100C80002BD828688001F7D4206AB0F5803F05D1C1
:100C90006868A16820F4003008436860D4E908015E
:100CA0000843696821F4741108436860C6F86090CD
:100CB000FFF73CFC044606E025E000BFFFF736FCEA
:100CC000001B022809D828688001F7D51BE000BF67
:100CD000FFF72CFC001B022802D90320BDE8F88F87
:100CE00028688001F4D40EE00128F7D06868226AF1
:100CF00000F48031914204D1616A00F4701088429E
:100D000001D00120EAE70020E8E7000000100240DF
:100D100000004242800442428800002000700040EF
:100D20007047704710B5044600680168C90716D0BF
:100D30004168C90713D040684007204607D5FFF730
:100D4000F0FF21686FF004004860042002E0FFF724
:100D5000E7FF0120607421686FF00100486010BD5A
:100D600070B5040003D0607C002610B105E00120BE
:100D700070BD2674204600F043F8022060742046BF
:100D800000F01AF9042578BB204600F0E8F958BBBA
:100D90002068416821F007014160A06820B1174830
:100DA000016821F0010101601448001F0168A26878
:100DB00021F46071114301606068411C04D101207D
:100DC000FFF768FC80B1401E21688A6822F00F029C
:100DD00042EA10428A602168CA6860F30F02CA6062
:100DE000204600F0D7F908B16574C0E7E67301202A
:100DF0006073A0736074002070BD0000306C004010
:100E000008B500680D49884217D1FFF72DFC0C4842
:100E1000C16941F00061C161C0690A4900F0006028
:100E2000009001200860002211460320FFF7EAFB32
:100E3000BDE808400320FFF7D7BB08BD00280040ED
:100E4000001002403C0442422DE9F0410D460400EE
:100E50003BD0C5B3207C01283AD04FF0010884F87C
:100E6000108002206074E87872B300F06FF9E073CC
:100E7000687800F06BF96073A87800F067F9A073E8
:100E8000C2B2617BE07B00F0BEF92073287020467F
:100E900000F0A9F94FF46161B0FBF1F100251829C8
:100EA0002DD91822B1FBF2F1A1EB011101EB4101A7
:100EB000C1EB011100EBC1163146204600F0E2F90A
:100EC0000427C8B90BE000E004E00120BDE8F08190
:100ED0000220FBE7E07368786073A878CFE72046CC
:100EE00000F07AF9411C0AD0B04208D20649014408
:100EF000204600F0B3F910B167742574E5E784F873
:100F0000118025740020E1E7805101002DE9F041B6
:100F10000D46040024D01DB3207C012823D04FF0BF
:100F2000010884F81080022060742878EAB100F08B
:100F30000DF94FF4616100FB01F6687800F006F9E5
:100F4000C0EB001006EB8006A87800F0FFF835181B
:100F50002946204600F096F90026042710BB0FE032
:100F60000120BDE8F0810220FBE74FF461614843B6
:100F70006978C1EB011100EB8100A9784518E7E71A
:100F80002068416821F005014160204600F024F905
:100F9000411C0AD0A84208D206490144204600F06C
:100FA0005DF910B167742674DAE784F8118026744D
:100FB0000020D6E78051010070B504000AD02068F7
:100FC000416821F008014160FFF7B0FA05464FF48F
:100FD0007A7608E0012070BDFFF7A8FA401BB04206
:100FE00001D9032070BD206840680007F4D50020B7
:100FF00070BD10B5401EB0F1807F01D3012010BD3F
:101000004FF0E02460610F21601700F08FF900209D
:10101000A06107202061002010BDFEE7F0B589B077
:101020000C460F49DDE9106591F800E00021DDE98B
:101030000EC705910691CDE9003C07910891134632
:10104000BEF1000F02972246014601D0012000E0C8
:101050000020CDE9036500F08BFA09B0F0BD000077
:101060006800002030B585B0002418480094019431
:1010700002940394816941F010018161816901F05A
:1010800010010491816941F0080181618069104D6E
:1010900000F0080004900022FE212846FFF741FAE4
:1010A0000E20CDE9000469460A480294FFF754F97E
:1010B000FE2000901120CDE9010402200390694632
:1010C0002846FFF749F905B030BD00000010024086
:1010D000000C0140001001401CB500241748019489
:1010E000154900940160611EC0E90114FFF738FE44
:1010F00008B172B6FEE78DF804408DF805408DF812
:101100000640002201A90D48FFF700FF08B172B6A2
:10111000FEE701208DF800008DF801008DF8020037
:101120008DF80340002269460448FFF78DFE002831
:1011300001D072B6FEE71CBD002800408C000020E4
:10114000FEE7FEE7FFF798BA70477047010901EB29
:10115000810100F00F0000EB4100C0B2704770B594
:101160000446FFF7E3F905464FF47A7606E0FFF709
:10117000DDF9401BB04201D9032070BD20684068F2
:101180008006F4D52068416841F0100141600020DC
:1011900070BD000070B504460068416821F0100180
:1011A0004160FFF7C3F905464FF47A7607E000BFC8
:1011B000FFF7BCF9401BB04201D9032070BD206885
:1011C00040688006F4D5002070BD00000148FFF79C
:1011D000A9BD00008C0000200168086A496A89B234
:1011E00041EA00407047006881698AB2C1698BB2E8
:1011F000816989B28A4203D0C06961F31F40704798
:1012000043EA02407047F0B56424C1EBC1030927EB
:10121000A500072603EB01130329B3FBF7F100F543
:10122000FA60114401440AD2401EB0FBF4F201EB13
:101230009001B0FBF5F0891A0844001D08E0B0FBEE
:10124000F4F201EB9001B0FBF5F0891A0844801C20
:10125000B0FBF6F106FB1100C0B2F0BD70B50D4653
:1012600006460024FFF77BFF48B93168280C086266
:101270003168A8B248623046FFF78CFF00B1012404
:10128000204670BD70B50D4606460024FFF767FF87
:1012900048B93168280C88613168A8B2C861304605
:1012A000FFF778FF00B10124204670BD7047FFF7BB
:1012B00043B970B594B028216846FEF73CFF14216D
:1012C0000AA8FEF738FF00240F940A200125009099
:1012D0001020CDE904501094119412940226069522
:1012E000CDE9076468460994FFF78AFB08B172B636
:1012F000FEE70F20CDE90A068020CDE90C0400218D
:101300000AA80E94FFF7A0FA08B172B6FEE74FF4F0
:101310000070CDE90F500FA8FFF720FA002801D088
:1013200072B6FEE714B070BD7047FEE70907090EFC
:10133000002804DB00F1E02080F80014704700F082
:101340000F0000F1E02080F8141D704702E008C88B
:10135000121F08C1002AFAD170477047002001E02F
:1013600001C1121F002AFBD1704700007FB54A4C13
:101370000D46012903D9A17841F00801A17000F1BF
:101380004003024665714021002000F0D9FB6078DF
:1013900028B1012D03D1A07840F00400A07000F026
:1013A000A9F8032003900120019021783B480029EF
:1013B000E2880188638941EA0201228942EA030244
:1013C00041EA0201428841EA0201828841EA0201BF
:1013D00001D0C08808E0C2881143028911434289C4
:1013E00011438289C0891143014300916946E06835
:1013F000FEF7B2FF3220FEF715FF0022E188E06819
:10140000FFF78FF800226189E068FFF78AF82189E9
:10141000FF2903D00022E068FFF783F8A078C10617
:1014200015D4032000F09CFB0520FEF7FBFE0320F3
:1014300000F096FB0520FEF7F5FE032000F090FB80
:101440000120FEF7EFFE022000F08AFB13E040F0DF
:10145000200000F02EF80520FEF7E4FEA07840F012
:10146000200000F026F80120FEF7DCFEA07840F016
:10147000200000F01EF8A07840F0200000F019F8DD
:101480000420E07000F02AF800F00AF80220207131
:10149000062000F00EF87FBD68000020A0000020AC
:1014A00010B5012000F005F8BDE810400220FEF75D
:1014B000B9BE002100F00EBB70B50D4600F007006C
:1014C000402141EAC000FFF7F4FF00240121285D1C
:1014D00000F000FB641C082CF8DB70BD0449C878E0
:1014E00040F00400C87040F00800FFF7E2BF0000C1
:1014F00068000020184808B5184AC1681848914289
:1015000007D1816941F004018161806900F0040024
:1015100009E0144A914208D1816941F008018161D2
:10152000806900F00800009008BD0F4A914207D181
:10153000816941F010018161806900F01000F2E7DB
:101540000A4A9142F0D1816941F0200181618069AC
:1015500000F02000E7E700006800002000080140DC
:1015600000100240000C0140001001400014014036
:101570002DE9F05F0AAC94E8E05F0F4CE280238134
:101580006581E1600D490E804F80A1F80480A1F8CB
:101590000690A1F808A0A1F80AB0A1F80CC0A1F823
:1015A0000EE008B1002000E01020A070BDE8F05F60
:1015B00002211020FFF7DABE68000020A000002002
:1015C00010B5C0B2002100F0A7FABDE8104001A09C
:1015D00000F04EBA3000000010B5C0B2002100F09B
:1015E0009BFABDE81040002000F0B4BA10B5C0B2BC
:1015F000002100F091FABDE81040012000F0AABAE5
:1016000010B5C0B2002100F087FABDE810400220FA
:1016100000F0A0BA10B5C0B2002100F07DFABDE81C
:10162000104001A000F024BA3800000010B5C0B28C
:10163000002100F071FABDE81040032000F08ABAE2
:1016400010B5C0B2002100F067FABDE810400520D7
:1016500000F080BA10B5C0B2002100F05DFABDE81C
:101660001040042000F076BA10B5C0B2002100F09E
:1016700053FABDE81040062000F06CBA10B5C0B2B5
:10168000002100F049FABDE81040072000F062BADE
:101690001FB5FEF759FFFFF70CFEFFF7E3FCFFF75E
:1016A0001BFD80234022202110208DE80F000823FD
:1016B00002220421BD48FFF7B1FCBD490020FFF71D
:1016C000FBFEBB4901200831FFF7F6FEB8490220B6
:1016D0001031FFF7F1FEB64903201831FFF7ECFE99
:1016E000B34904202831FFF7E7FEB1490520203136
:1016F000FFF7E2FEAE4906203031FFF7DDFEAC49D0
:1017000007203831FFF7D8FEA94C0126283C0025D8
:101710006661A66125606560A560DFF89892E66164
:101720004FF00A08E5600121002000F0F5F994F877
:10173000240000F00FFA606A68B90121084600F041
:10174000EBF99DA000F094F901210E2000F0E4F9DE
:101750009DA000F08DF9606A012806D1012108469C
:1017600000F0DAF999A000F083F9606A02280DD13F
:101770000121084600F0D0F998A000F079F9012184
:101780000D2000F0C9F999A000F072F9606A0328F1
:101790000DD10121084600F0BFF995A000F068F9CD
:1017A00001210E2000F0B8F987A000F061F90221B4
:1017B0004F464846FEF7B0FE10B96069012807D0D1
:1017C00002213846FEF7A8FEE0B16069C8B119E011
:1017D000606A6561401C60620121002000F09CF994
:1017E00094F8240000F0B6F9606A03280ADD0121AC
:1017F0000020656200F090F994F8240000F0AAF946
:1018000000E0666104213846FEF786FE10B9606983
:10181000012807D004213846FEF77EFE30B160690A
:1018200018B103E02662A56100E0A66108213846F0
:10183000FEF772FE10B96069012807D0082138460A
:10184000FEF76AFE40B1606928B105E04FF0FF3055
:10185000C4E9075000E0E661606A012804D002286C
:1018600010D0032826D11BE0216A60682562084455
:1018700060603B2802DD3B2060601BE0002819DA35
:10188000656017E0216AA06825620844A0600B2803
:1018900002DD0B20A0600DE000280BDAA56009E056
:1018A000206A012801D1E6602562206A401C01D12E
:1018B000E560256220683B2810DD25606068401CDB
:1018C00060603B280ADD6560A068401CA0600B28B2
:1018D00004DDA560E068D0B30020E060A068474662
:1018E00090FBF7F108FB11000421206100F08EF855
:1018F000A068032190FBF7F0206100F087F8616891
:1019000091FBF7F007FB10100721206100F07EF833
:101910006068062190FBF7F0206100F077F82168FD
:1019200091FBF7F007FB10100A21206100F06EF820
:101930002068092190FBF7F0206100F067F8002192
:101940000E2000F0E9F8E06820B12DA003E0FFE7E9
:101950000120C2E72BA000F08BF8606A00287FF41A
:10196000E2AE20680021401C2060052000F0D4F881
:1019700015A000F07DF80021082000F0CDF812A09D
:1019800000F076F84FF47A70FEF74CFC0021052049
:1019900000F0C2F81CA000F06BF80021082000F055
:1019A000BBF819A000F064F8BDE60000000C01408F
:1019B00028000020001001403A444953504C41593E
:1019C0002054494D45000000200000003A434841A2
:1019D0004E4745204D494E55544500003A43484135
:1019E0004E474520484F555200000000202000007F
:1019F0003A4348414E474520414D2D504D0000008F
:101A0000414D0000504D00003A000000A0B10128F7
:101A100015D0022816D0032817D0042818D005287E
:101A200019D006281AD007281BD008281CD009284E
:101A30001DD10846FFF722BE0846FFF7C1BD084684
:101A4000FFF7CABD0846FFF7D1BD0846FFF7D8BD6E
:101A50000846FFF7DFBD0846FFF7E8BD0846FFF779
:101A6000EFBD0846FFF7F6BD0846FFF7FDBD70471E
:101A700070B500280FD00446FEF768FB0546002627
:101A800006E000BF14F8010B012100F023F8761CDA
:101A90006D1EF7D2304670BD10B50D4C0022618925
:101AA000E068FEF73EFD0120FEF7BCFB01226189E4
:101AB000E068FEF736FD0120FEF7B4FB00226189E5
:101AC000E068FEF72EFDBDE810400120FEF7AABB3E
:101AD0006800002070B50F4C05460A46E188E068B2
:101AE000FEF71FFD2189FF2903D00022E068FEF7E1
:101AF00018FDA078C00604D52846BDE8704000F067
:101B000049B8280900F02CF82846BDE8704000F0DC
:101B100027B8000068000020042900D30321074AE9
:101B20005279914201D3521ED1B2044A1032515C13
:101B30000844C0B240F08000FFF7BBBC6800002042
:101B400010B5034C20706170A270E37010BD0000EE
:101B50007800002010B50121FFF7BCFF012010BD67
:101B60002DE9F041094E0A4F0546002425FA04F0FC
:101B700000F0010236F81410F868FEF7D2FC641C7D
:101B8000042CF3DBBDE8F041FFF786BFA000002086
:101B9000680000202DE9F041094E0A4F0546002457
:101BA00025FA04F000F0010236F81410F868FEF788
:101BB000B8FC641C082CF3DBBDE8F041FFF76CBFF8
:101BC000A0000020680000200000000000000000CD
:101BD00001020304060708090000000001020304D3
:101BE000001C0008000000208C0000004C130008BE
:101BF0008C1C00088C000020440400005C130008CA
:101C000000000000000000000000000000000000D4
:101C100000000000000000000000000000000000C4
:101C200000000000000000001008040201021C185F
:101C30001E010106180402010E0E011111110A0401
:101C40001F12141711111F0E1112141311110A046F
:101C50001F11111F010101011010101F1E111F1F64
:101C600010100C02011D1301010000000000000013
:101C70000000000000000000000000000100000063
:0C1C800010000000000000000024F40030
:04000005080000ED02
:00000001FF
