:020000040800F2
:10000000A0040020050100084F1100088F1000080F
:100010004D110008AD010008351400080000000073
:10002000000000000000000000000000671300084E
:10003000AF0100080000000051110008B9130008CA
:100040001F0100081F0100081F0100081F01000810
:100050001F0100081F0100081F0100081F01000800
:100060001F0100081F0100081F0100081F010008F0
:100070001F0100081F0100081F0100081F010008E0
:100080001F0100081F0100081F0100081F010008D0
:100090001F0100081F0100081F0100081F010008C0
:1000A0001F0100081F0100081F0100081F010008B0
:1000B0001F0100081F010008000000001F010008C8
:1000C0001F01000800000000000000001F010008E0
:1000D000000000001F0100081F01000800000000D0
:1000E0001F0100081F0100081F010008DFF810D0E1
:1000F00000F04AF800480047351B0008AFF30080C5
:10010000A00400200648804706480047FEE7FEE7B7
:10011000FEE7FEE7FEE7FEE7FEE7FEE7FEE7FEE7B7
:1001200033140008ED000008D2B201E000F8012B02
:10013000491EFBD270470022F6E710B513460A4667
:1001400004461946FFF7F0FF204610BD421C10F888
:10015000011B0029FBD1801A704730B50B460146C0
:1001600000202022012409E021FA02F59D4205D356
:1001700003FA02F5491B04FA02F52844151EA2F100
:100180000102F1DC30BD0000064C074D06E0E068DE
:1001900040F0010394E8070098471034AC42F6D3CE
:1001A000FFF7A8FF7C1F00089C1F0008FEE77047B0
:1001B0002DE9F84300226946284800F0A9FD9DF882
:1001C00000100A20B1FBF0F2B1FBF0F500FB1217B2
:1001D0004FF4FA7640F2EE28214C07E0304600F06A
:1001E000BFF87F1C0421384601F098FD0421204609
:1001F00000F0A8F90028F1D047460821204600F079
:10020000A1F968B9384600F0ABF801F0EBFDF4E76E
:10021000304600F0A5F86D1C0321284601F07EFD54
:100220001021204600F08EF90028F1D004E0384675
:1002300000F096F801F0DCFB2021204600F082F966
:100240000028F4D00021084601F00AFE05A001F0C4
:1002500097FDC82000F084F8BDE8F8837000002006
:100260000010014031000000F8B5002269461C482A
:1002700000F04EFD9DF801100A20B1FBF0F2B1FB39
:10028000F0F400FB1215174E40F2EE2707E0384657
:1002900000F066F8641C0621204601F03FFD0421B1
:1002A000304600F04FF90028F1D04FF49674082141
:1002B000304600F047F950B10021084601F0D0FD6A
:1002C00009A001F05DFDC82000F04AF8F8BD204605
:1002D00000F046F86D1C0721284601F01FFDE6E7F7
:1002E00070000020001001403200000038B50022EC
:1002F00069461A4800F00CFD9DF800000A24B0FB86
:10030000F4F104FB1100042101F008FD9DF8000048
:100310000321B0FBF4F001F001FD9DF80100B0FBFA
:10032000F4F104FB1100072101F0F8FC9DF8010035
:100330000621B0FBF4F001F0F1FC9DF80200B0FBE7
:10034000F4F104FB11000A2101F0E8FC9DF8020021
:100350000921B0FBF4F001F0E1FC38BD7000002091
:1003600070B5044600F0F8F80546601C02D0044859
:100370000078044400F0F0F8401BA042FAD370BDAE
:10038000600000202DE9F84FDFF89C91002409F16E
:10039000040A0AF1040B23460F270BF1040EBBE0FD
:1003A0000125A5402A40AA4276D1DFF880C14E68D7
:1003B000A6EB0C0866452BD00DDC032E34D005DCF3
:1003C00036B3012E19D0022E2FD11BE0112E16D0DC
:1003D000122E2AD119E0B8F5881F19D006DCB8F51D
:1003E000803F15D0B8F5801F1FD111E0B8F5001F70
:1003F0000ED0B8F5041F18D10AE0CB6815E0CB6821
:100400001B1D12E0CB6808330FE0CB680C330CE007
:100410008B682BB1012B4FF0080303D0456104E03A
:10042000042302E0056100E00023FF2A01D806460C
:1004300001E000F104064FEA840501D9A5F1200589
:10044000D6F8008007FA05FC28EA0C0803FA05F53F
:1004500048EA0508C6F800804D68ED005BD5344DCC
:10046000AE6946F00106AE61AD6924F0030605F001
:10047000010500952F4D06EB050CDCF80850A6078A
:10048000360F07FA06F825EA0805DFF8AC80404584
:1004900003D14FF0000810E03DE0DFF8A0804045B8
:1004A00002D14FF0010808E0DFF89480404502D106
:1004B0004FF0020801E04FF0030808FA06F848EA96
:1004C0000508CCF808804D68D9F80060ED034D466A
:1004D00001D5164300E096432E604D68DAF80060BF
:1004E000AD03554601D5164300E096432E604D6896
:1004F000DBF80060ED025D4601D5164300E096434F
:100500002E604D68DEF80060AD02754601D51643D9
:1005100000E096432E60641C0A6832FA04F57FF40A
:100520003FAFBDE8F88F000000040140000011104B
:10053000001002400000014000080140000C014092
:10054000001001408068084000D0012070470AB1C7
:10055000016170470904FBE70148806870470000AB
:100560006000002002488168027811448160704771
:1005700060000020074810B5016841F010010160DB
:10058000032000F067F8002000F006F800F024F8DF
:10059000002010BD0020024070B50D4D04464FF400
:1005A0007A712878B1FBF0F00A490968B1FBF0F0E4
:1005B00000F059FD48B9102C07D200222146501EE8
:1005C00000F028F800206C6070BD012070BD0000B4
:1005D000600000206C0000200C4808B5816941F0E3
:1005E00001018161816901F001010091C16941F05E
:1005F0008051C161C06900F080500090044841689A
:1006000021F0E06141F08061416008BD00100240CE
:1006100000000140F0B40E4B1B680C46C3F30223EC
:10062000C3F10705042D00D90425191D072901D29E
:10063000002300E0DB1E012606FA05F1491E2140D9
:1006400099409E40761E16403143F0BC00F008BF32
:100650000CED00E0064900F0070208684FF6FF03C2
:10066000184040EA0220034A104308607047000027
:100670000CED00E00000FA05014901200862704716
:1006800000000E4210B529A401461DCC86B08DE8AD
:100690001D002AA02A4C006804900020012923D0C4
:1006A00002293AD010291DD161682268D20119D5DA
:1006B000C1F38342C9031DF8020009D5616804AA89
:1006C000C1F34041515C1F4AB2FBF1F1484301E0E4
:1006D0001D4948436168490204D440005FF00301AA
:1006E000B0FBF1F006B010BD226AC2F3012101296E
:1006F00003D1920701D5C803F4E7022905D1626A44
:10070000920702D549F64040ECE70329EAD1216877
:100710008903E7D54FF22440E4E700F023F961684C
:10072000C1F38131491C4900DAE7000002030405E6
:10073000060708090A0B0C0D0E0F1010010200002D
:100740000010024000127A0000093D002DE9F84334
:1007500005460078354CC00754D0E0690026C0003B
:1007600008D4E06940F08050E061E069012600F0C3
:10077000805000902E480168C90512D40168804657
:1007800041F480710160FFF7E7FE074605E000BF16
:10079000FFF7E2FEC01B642823D8D8F80000C0058C
:1007A000F6D5206A10F4407021D0A98801F4407178
:1007B00081421CD0206A1F49012220F440700A6047
:1007C00000220A602062C00711D0FFF7C5FE07466D
:1007D00041F2883808E000BFFFF7BEFEC11B41456B
:1007E00002D90320BDE8F883206A8007F4D5206A87
:1007F000696820F44070084320621EB1E06920F06F
:100800008050E0612878800705D56068A96820F4E9
:100810004040084360602878C00605D56068E968F4
:1008200020F48000084360600020DBE700100240F5
:1008300000700040400442422DE9F0470F46050099
:1008400061D0434E306800F00700B84209D23068EA
:1008500020F0070038433060306800F00700B842ED
:1008600051D128683B4C810712D5400703D56068F9
:1008700040F4E06060602878000703D5606840F4C9
:10088000605060606068A96820F0F0000843606014
:100890002878C00728D06868012810D0216802286D
:1008A00010D0890700292EDA616821F00301014385
:1008B0006160FFF751FE804641F288390DE0216802
:1008C0008903EFE78901EDE7FFF746FEA0EB08019A
:1008D000494502D90320BDE8F0876068696800F0E7
:1008E0000C00B0EB810FEFD1306800F00700B84288
:1008F0000BD9306820F0070038433060306800F0D2
:100900000700B84201D00120E5E72878400705D567
:100910006068E96820F4E0600843606028780007B8
:1009200006D56068296920F4605040EAC100606023
:1009300000F028F86168084AC1F30311515CC8400F
:100940000649086006480068FFF726FE0020C2E757
:100950000020024000100240641F00086C000020CC
:10096000640000200448054900684968044AC1F34E
:10097000C221515CC84070476C000020001002404A
:10098000741F000812A185B00FC98DE80F0014A0D4
:10099000144A006804905168134801F00C03042BBA
:1009A00010D0082B0ED1C1F38343C9031DF80300F7
:1009B0000AD5516804AAC1F34041515C0A4A504328
:1009C000B0FBF1F005B0704708494843FAE7000072
:1009D00002030405060708090A0B0C0D0E0F101080
:1009E000010200000010024000127A0000093D00E0
:1009F0002DE9F84F040070D02078C04DC00749D0D1
:100A00006868C0F38100012807D06868C0F38100DE
:100A1000022809D16868C00306D52868800339D543
:100A200060680028E7D035E06068B0F5803F0BD003
:100A300010B1B0F5A02F11D0286820F480302860C4
:100A4000286820F4802002E0286840F48030286084
:100A5000606890B1FFF780FD06460AE0286840F420
:100A600080202860F0E700BFFFF776FD801B642838
:100A700073D828688003F7D50CE0FFF76DFD0646B4
:100A800005E000BFFFF768FD801B6428F0D82868E8
:100A90008003F7D420789A4E80074FF001094FF079
:100AA000000839D5686810F00C0F07D06868C0F3EB
:100AB0008100022809D16868C00306D4286880072D
:100AC00014D52069012808D110E02069B0B1C6F81A
:100AD0000090FFF741FD074605E00AE1FFF73CFD06
:100AE000C01B0228C4D828688007F7D52868616928
:100AF00020F0F80040EAC10028600DE0C6F8008050
:100B0000FFF72AFD074604E0FFF726FDC01B022879
:100B100023D828688007F7D4207800072CD5794897
:100B2000A169D9B1C0F80090FFF716FD074604E0AF
:100B3000FFF712FDC01B02280FD8686A8007F7D59F
:100B400071484FF4FA510068B0FBF1F0009000BF1B
:100B50000098411E0091FAD20EE080E0C0F80080BB
:100B6000FFF7FAFC074604E0FFF7F6FCC01B02287B
:100B700075D8686A8007F7D42078400760D5E8699F
:100B80000027C00008D4E86940F08050E861E869B7
:100B9000012700F0805000905C480168C90513D41B
:100BA0000168834641F480710160FFF7D5FC8246FD
:100BB00006E000BFFFF7D0FCA0EB0A0064284ED887
:100BC000DBF80000C005F5D5E06801280AD008B1BF
:100BD000052813D0286A20F001002862286A20F036
:100BE000040002E0286A40F001002862E06841F257
:100BF000883B98B1FFF7B0FC82460BE0286A40F0D2
:100C000004002862EEE700BFFFF7A6FCA0EB0A0194
:100C100059455AD8286A8007F6D50CE0FFF79CFCA6
:100C2000824605E0FFF798FCA0EB0A0159454CD835
:100C3000286A8007F6D41FB1E86920F08050E86187
:100C4000E06988B36968C1F38101022944D00228B0
:100C5000C6F8608004D0FFF77FFC044638E034E03B
:100C6000FFF77AFC074604E0FFF776FCC01B02287A
:100C70002BD828688001F7D4206AB0F5803F05D1D1
:100C80006868A16820F4003008436860D4E908016E
:100C90000843696821F4741108436860C6F86090DD
:100CA000FFF75AFC044606E025E000BFFFF754FCBE
:100CB000001B022809D828688001F7D51BE000BF77
:100CC000FFF74AFC001B022802D90320BDE8F88F79
:100CD00028688001F4D40EE00128F7D06868226A01
:100CE00000F48031914204D1616A00F470108842AE
:100CF00001D00120EAE70020E8E7000000100240F0
:100D000000004242800442426C000020007000401B
:100D10002DE9F04791460C465FEA00084AD084B3BB
:100D2000D8F800004068400744D4404600F0B8FAC4
:100D30004FF461620546B0FBF2F1B0FBF2F302FB47
:100D400013503C23B0FBF3F0B5FBF2F6607002FBEE
:100D50001650B0FBF3F203FB1200A070182931D338
:100D60001820B1FBF0F7B1FBF0F200FB121020707D
:100D7000404600F08EFA411C04D0A84202D9461B1E
:100D800002E017E04FF0FF36A7EB071000EB400042
:100D9000C0EB001005EBC0152946404600F0CFFA25
:100DA00040B9701C01D0711900E03146404600F096
:100DB000B2FA10B10120BDE8F0873946404600F094
:100DC000DCF900E02170B9F1000F0BD0207800F0C1
:100DD000C9F92070607800F0C5F96070A07800F063
:100DE000C1F9A0700020E6E770B5040003D0607C74
:100DF000002610B105E0012070BD2674204600F0E9
:100E000043F802206074204600F010F9042578BBF6
:100E1000204600F009FA58BB2068416821F007011C
:100E20004160A06820B11748016821F0010101600C
:100E30001448001F0168A26821F460711143016029
:100E40006068411C04D10120FFF71CFC80B1401EEA
:100E500021688A6822F00F0242EA10428A60216803
:100E6000CA6860F30F02CA60204600F0F7F908B1C3
:100E70006574C0E7E67301206073A073607400209E
:100E800070BD0000306C004008B500680849884219
:100E90000DD1FFF7F1FB0748C16941F00061C16165
:100EA000C069054900F0006000900120086008BD9D
:100EB00000280040001002403C0442422DE9F0416D
:100EC0000D4604003BD0C5B3207C01283AD04FF03A
:100ED000010884F8108002206074E87872B300F092
:100EE00038F9E073687800F034F96073A87800F09E
:100EF00030F9A073C2B2617BE07B00F0E1F92073AE
:100F00002870204600F0CCF94FF46161B0FBF1F19C
:100F1000002518292DD91822B1FBF2F1A1EB0111FE
:100F200001EB4101C1EB011100EBC1163146204636
:100F300000F005FA0427C8B90BE000E004E0012046
:100F4000BDE8F0810220FBE7E07368786073A87861
:100F5000CFE7204600F09DF9411C0AD0B04208D2EC
:100F600006490144204600F0D6F910B16774257493
:100F7000E5E784F8118025740020E1E78051010045
:100F80002DE9F0410D46040024D01DB3207C01283A
:100F900023D04FF0010884F8108002206074287874
:100FA000EAB100F0D6F84FF4616100FB01F6687811
:100FB00000F0CFF8C0EB001006EB8006A87800F038
:100FC000C8F835182946204600F0B9F9002604274C
:100FD00010BB0FE00120BDE8F0810220FBE74FF4D9
:100FE000616148436978C1EB011100EB8100A97888
:100FF0004518E7E72068416821F005014160204677
:1010000000F047F9411C0AD0A84208D20649014421
:10101000204600F080F910B167742674DAE784F88E
:10102000118026740020D6E78051010070B50400BD
:101030000AD02068416821F008014160FFF78CFA6E
:1010400005464FF47A7608E0012070BDFFF784FA78
:10105000401BB04201D9032070BD206840680007E2
:10106000F4D5002070BD10B5401EB0F1807F01D3D3
:10107000012010BD4FF0E02460610F21601700F0E7
:10108000EFF90020A06107202061002010BDFEE7DD
:10109000F0B589B00C460F49DDE9106591F800E024
:1010A0000021DDE90EC705910691CDE9003C0791CD
:1010B00008911346BEF1000F02972246014601D067
:1010C000012000E00020CDE9036500F0A3FC09B099
:1010D000F0BD00004C00002030B585B00024184859
:1010E0000094019402940394816941F0100181619C
:1010F000816901F010010491816941F00801816169
:101100008069104D00F0080004900022FE2128465E
:10111000FFF71DFA3E20CDE9000469460A48029413
:10112000FFF730F9FE2000901120CDE901040220E4
:10113000039069462846FFF725F905B030BD000049
:1011400000100240000C014000100140FEE7FEE7E5
:101150007047010901EB810100F00F0000EB410035
:10116000C0B27047002102E00A38C0B2491C0A2808
:10117000FAD2090740EA116070472DE9F0410446B0
:101180000025C07B627BA37B42E0012A16D0032AA4
:1011900014D0052A12D0072A10D0082A0ED00A2A05
:1011A0000CD00C2A0AD0042A10D0062A0ED0092A04
:1011B0000CD00B2A0AD0022A0DD028E01F2B0CD30A
:1011C0000C2A05D101221346401C20E01E2B04D31B
:1011D0000123521C1BE01C2B02D203F1010316E079
:1011E00011D183B29E0710D16426B3FBF6F706FB3C
:1011F000173636B94FF4C876B3FBF6F706FB17334C
:101200001BB91D2303E01D2B01D1032201236D1CFB
:101210008D42BAD3D1B2E0736173DAB2A27300F037
:101220004FF82073BDE8F08170B50446FFF794F9DC
:1012300005464FF47A7606E0FFF78EF9401BB04280
:1012400001D9032070BD206840688006F4D520686D
:10125000416841F010014160002070BD70B5044646
:101260000068416821F010014160FFF775F90546FB
:101270004FF47A7607E000BFFFF76EF9401BB042EB
:1012800001D9032070BD206840688006F4D5002095
:1012900070BD0168086A496A89B241EA0040704736
:1012A000006881698AB2C1698BB2816989B28A4258
:1012B00003D0C06961F31F40704743EA02407047A2
:1012C000F0B56424C1EBC1030927A500072603EB91
:1012D00001130329B3FBF7F100F5FA60114401444F
:1012E0000AD2401EB0FBF4F201EB9001B0FBF5F026
:1012F000891A0844001D08E0B0FBF4F201EB9001EC
:10130000B0FBF5F0891A0844801CB0FBF6F106FB2F
:101310001100C0B2F0BD70B50D4606460024FFF7BF
:1013200083FF48B93168280C08623168A8B2486266
:101330003046FFF793FF00B10124204670BD70B521
:101340000D4606460024FFF76FFF48B93168280CA8
:1013500088613168A8B2C8613046FFF77FFF00B1ED
:101360000124204670BD70471CB500F0D9FA002258
:1013700001A90B48FFF7CCFC0A480BA102798DF8B4
:101380000420037A8DF805309DF80600009004488B
:10139000143000F051F86420FEF7E2FF1CBD00009D
:1013A0007000002000000020253032643A253032E1
:1013B000643A253032640000FFF7D4B870B594B0B9
:1013C00028216846FEF7B7FE14210AA8FEF7B3FEEF
:1013D00000240F940A20012500901020CDE904502C
:1013E00010941194129402260695CDE9076468467C
:1013F0000994FFF7FDFA08B172B6FEE70F20CDE9B8
:101400000A068020CDE90C0400210AA80E94FFF7FB
:1014100013FA08B172B6FEE74FF40070CDE90F5031
:101420000FA8FFF793F9002801D072B6FEE714B0B9
:1014300070BD7047FEE700000FB4084B10B504A95B
:1014400002AA039800F02CF8044602A9002000F03C
:10145000C8F9204610BC5DF814FB0000E317000833
:101460000907090E002804DB00F1E02080F80014D1
:10147000704700F00F0000F1E02080F8141D704765
:1014800002E008C8121F08C1002AFAD1704770474D
:10149000002001E001C1121F002AFBD170470000AB
:1014A0002DE9FF4F8BB088460546002606E025282B
:1014B0000BD0DDE90D1290476D1C761C28780028B2
:1014C000F5D10FB03046BDE8F08F0024A146A2460A
:1014D0000122AE4900E0044315F8013F203B02FA27
:1014E00003F00842F7D128782A2810D06FF02F0295
:1014F0002878A0F13001092915D809EB890102EB00
:10150000410144F0020400EB01096D1CF0E758F8BA
:10151000041B5FEA010903D544F40054C9F1000932
:1015200044F002046D1C28782E2817D115F8010FFD
:1015300044F004042A280ED06FF02F022878A0F17E
:10154000300109290AD80AEB8A0102EB410100EBBC
:10155000010A6D1CF2E758F804AB6D1C28786C2862
:101560000FD006DC4C2817D068280DD06A2814D17B
:1015700004E0742810D07A280FD10DE044F4001450
:101580000AE044F4801401E044F440146978814294
:1015900002D104F580146D1C6D1C2878692865D073
:1015A00006DC00288DD0632827D0642806D15DE0B2
:1015B0006E2808D073282AD0752877D0DDE90D125F
:1015C0009047761CE0E0C4F30250022809D00328BB
:1015D0000DD0D8F8001004280DD00E6008F10408D2
:1015E000D2E0D8F80010F217C1E90062F6E7D8F8A7
:1015F00000100E80F2E70E70F0E718F8041B8DF86B
:10160000001000208DF80100EB46012003E058F89F
:1016100004BB4FF0FF3061074FF0000701D40AE030
:101620007F1C57450DDA8742FADB1BF807100029AB
:10163000F6D106E07F1C8742FCDB1BF8071000296F
:10164000F8D1DDE90D23A9EB07008146214600F022
:10165000B1F83044C61904E0DDE90D121BF8010BA6
:1016600090477F1EF8D22146484688E058F8040B80
:10167000C4F302514FF00A0B032900D100B2042930
:1016800000D140B2002802DA40422D2102E02105BB
:1016900005D52B218DF82410012104E006E0E10797
:1016A00010D02021F6E708AF089113E058F8040B9A
:1016B000C4F302514FF00A0B032900D180B2042970
:1016C00000D1C0B20021EEE75946FEF746FD3031A9
:1016D00007F8011D0028F7D1ADEB070000F1200B42
:1016E000600702D524F4803401E04FF0010ADA45A6
:1016F00002DDAAEB0B0000E00020824600EB0B01AC
:1017000008980144A9EB01000A90E00306D4DDE942
:101710000D2321460A9800F04DF806444FF00009C9
:1017200008E009A911F80900DDE90D12904709F157
:101730000109761C08998945F3DBE0030CD5DDE946
:101740000D2321460A9800F035F8064404E0DDE94F
:101750000D1230209047761CBAF10001AAF1010A5F
:10176000F5DC05E0DDE90D1217F8010B9047761C5A
:10177000BBF10001ABF1010BF4DC0A982146DDE975
:101780000D2300F005F806446D1C97E609280100BA
:101790002DE9F041044600251E461746880404D46E
:1017A00005E039462020B0476D1C641EF9D5284657
:1017B000BDE8F0812DE9F041044600251E46904623
:1017C000C80301D5302700E02027880404D505E0B0
:1017D00041463846B0476D1C641EF9D52846BDE821
:1017E000F0810A68531C0B60107070477FB54A4C3B
:1017F0000D46012903D9A17841F00801A17000F13B
:101800004003024665714021002000F03DFB6078F6
:1018100028B1012D03D1A07840F00400A07000F0A1
:10182000A9F8032003900120019021783B4800296A
:10183000E2880188638941EA0201228942EA0302BF
:1018400041EA0201428841EA0201828841EA02013A
:1018500001D0C08808E0C28811430289114342893F
:1018600011438289C0891143014300916946E068B0
:10187000FEF788FD3220FEF773FD0022E188E06864
:10188000FEF765FE00226189E068FEF760FE2189AF
:10189000FF2903D00022E068FEF759FEA078C106B8
:1018A00015D4032000F02AFB0520FEF759FD032084
:1018B00000F024FB0520FEF753FD032000F01EFB83
:1018C0000120FEF74DFD022000F018FB13E040F070
:1018D000200000F02EF80520FEF742FDA07840F031
:1018E000200000F026F80120FEF73AFDA07840F035
:1018F000200000F01EF8A07840F0200000F019F859
:101900000420E07000F02AF800F00AF802202071AC
:10191000062000F00EF87FBD4C0000208E00002055
:1019200010B5012000F005F8BDE810400220FEF7D8
:1019300017BD002100F072BA70B50D4600F0070027
:10194000402141EAC000FFF7F4FF00240121285D97
:1019500000F064FA641C082CF8DB70BD0449C878F8
:1019600040F00400C87040F00800FFF7E2BF00003C
:101970004C000020184808B5184AC1681848914220
:1019800007D1816941F004018161806900F00400A0
:1019900009E0144A914208D1816941F0080181614E
:1019A000806900F00800009008BD0F4A914207D1FD
:1019B000816941F010018161806900F01000F2E757
:1019C0000A4A9142F0D1816941F020018161806928
:1019D00000F02000E7E700004C0000200008014074
:1019E00000100240000C01400010014000140140B2
:1019F00008B5002269460648FFF78AF99DF80000FD
:101A00000A21B0FBF1F00321401E00F087F908BD68
:101A1000700000202DE9F05F0AAC94E8E05F0F4C05
:101A2000E28023816581E1600D490E804F80A1F83D
:101A30000480A1F80690A1F808A0A1F80AB0A1F8C6
:101A40000CC0A1F80EE008B1002000E01020A0704A
:101A5000BDE8F05F02211020FFF7C8BE4C00002057
:101A60008E00002010B5C0B2002100F0F9F9BDE8E9
:101A7000104001A000F084B93000000010B5C0B2E1
:101A8000002100F0EDF9BDE81040002000F030BA70
:101A900010B5C0B2002100F0E3F9BDE8104001200C
:101AA00000F026BA10B5C0B2002100F0D9F9BDE8A7
:101AB0001040022000F01CBA10B5C0B2002100F0A6
:101AC000CFF9BDE8104001A000F05AB9380000007D
:101AD00010B5C0B2002100F0C3F9BDE810400320EA
:101AE00000F006BA10B5C0B2002100F0B9F9BDE8A7
:101AF0001040052000F0FCB910B5C0B2002100F084
:101B0000AFF9BDE81040042000F0F2B910B5C0B242
:101B1000002100F0A5F9BDE81040062000F0E8B96A
:101B200010B5C0B2002100F09BF9BDE810400720BD
:101B300000F0DEB91FB5FEF71DFDFFF73FFCFFF714
:101B4000CBFA61485F49002501604FF0FF31C0E9E1
:101B50000115FFF749F908B172B6FEE700F09EF9EA
:101B600080234022202110208DE80F00082302222C
:101B700004215648FFF78CFA55490020FFF7DCFE98
:101B8000534901200831FFF7D7FE51490220103197
:101B9000FFF7D2FE4E4903201831FFF7CDFE4C4926
:101BA00004202831FFF7C8FE494905202031FFF7FE
:101BB000C3FE474906203031FFF7BEFE44490720E7
:101BC0003831FFF7B9FE0021084600F049F941A07D
:101BD00000F0D6F80121002000F042F941A000F009
:101BE000CFF84FF4FA60FEF7BBFBFFF799FE384CD5
:101BF000414E0C3C4FF44877002269463248FFF7CB
:101C000087F802213046FEF79DFC0028206801D1AC
:101C1000401C206040B9FEF769FB0021084600F037
:101C20001FF936A000F0ACF82068012801D1FEF7BA
:101C3000BFFA2068022801D1FEF716FB20680328AE
:101C400006D1FFF791FB4FF4FA70FEF789FB256090
:101C50000021052000F004F929A000F091F80021EE
:101C6000082000F0FDF826A000F08AF83846FEF7BC
:101C700077FB0021052000F0F3F822A000F080F8A7
:101C80000021082000F0ECF81EA000F079F89DF883
:101C900000004FF000010C380C284FF00D0003D26B
:101CA00000F0DEF818A002E000F0DAF817A000F06B
:101CB00067F80121032000F0D3F815A000F060F8C8
:101CC0009AE700000028004070000020000C01404E
:101CD0000C00002042414E474C41204449474954A2
:101CE000414C0000434C4F434B205749544820532C
:101CF000544D33320000000000100140300000005D
:101D0000200000003A000000504D0000414D00004E
:101D100032344820464F524D41540000A0B10128B2
:101D200015D0022816D0032817D0042818D005286B
:101D300019D006281AD007281BD008281CD009283B
:101D40001DD10846FFF7ECBE0846FFF78BBE0846DC
:101D5000FFF794BE0846FFF79BBE0846FFF7A2BEFA
:101D60000846FFF7A9BE0846FFF7B2BE0846FFF7D0
:101D7000B9BE0846FFF7C0BE0846FFF7C7BE7047AA
:101D800070B500280FD00446FEF7E0F9054600269E
:101D900006E000BF14F8010B012100F03FF8761CAB
:101DA0006D1EF7D2304670BD10B50D4C0022618912
:101DB000E068FEF7CCFB0120FEF7D2FA0122618930
:101DC000E068FEF7C4FB0120FEF7CAFA0022618931
:101DD000E068FEF7BCFBBDE810400120FEF7C0BA8A
:101DE0004C00002038B5002269460B48FEF790FFF2
:101DF0009DF800000A21B0FBF1F201FB12044FF440
:101E0000FA752846FEF7ACFA641E04212046FFF757
:101E100085FF002CF5D138BD7000002070B50F4C47
:101E200005460A46E188E068FEF791FB2189FF2913
:101E300003D00022E068FEF78AFBA078C00604D534
:101E40002846BDE8704000F073B8280900F056F845
:101E50002846BDE8704000F051B800004C0000205A
:101E6000042900D30321074A5279914201D3521E1B
:101E7000D1B2044A1032515C0844C0B240F0800034
:101E8000FFF757BD4C00002010B5034C2070617067
:101E9000A270E37010BD00005C0000201CB500249F
:101EA000019417208DF804000F208DF80500009490
:101EB0008DF80640224601A90C48FFF761F808B1E9
:101EC00072B6FEE701208DF800008DF801008DF854
:101ED00002008DF80340002269460448FEF7EEFF39
:101EE000002801D072B6FEE71CBD00007000002083
:101EF00010B50121FFF792FF012010BD2DE9F0413F
:101F0000094E0A4F0546002425FA04F000F00102AC
:101F100036F81410F868FEF71AFB641C042CF3DB87
:101F2000BDE8F041FFF740BF8E0000204C000020CC
:101F30002DE9F041094E0A4F0546002425FA04F028
:101F400000F0010236F81410F868FEF700FB641C7C
:101F5000082CF3DBBDE8F041FFF726BF8E00002020
:101F60004C000020000000000000000001020304FB
:101F70000607080900000000010203049C1F000876
:101F80000000002070000000801400080C200008F1
:101F900070000020300400009014000800000000D1
:101FA00000000000000000001008040201021C18DC
:101FB0001E010106180402010E0E011111110A047E
:101FC0001F12141711111F0E1112141311110A04EC
:101FD0001F11111F010101011010101F1E111F1FE1
:101FE00010100C02011D1301010000000000000090
:101FF00000000000000000000000000001000000E0
:0C20000010000000000000000024F400AC
:04000005080000ED02
:00000001FF
